{
  "contractName": "Main",
  "abi": [
    {
      "inputs": [
        {
          "internalType": "int256",
          "name": "",
          "type": "int256"
        }
      ],
      "name": "Rides",
      "outputs": [
        {
          "internalType": "int256",
          "name": "rideId",
          "type": "int256"
        },
        {
          "internalType": "address",
          "name": "riderAddress",
          "type": "address"
        },
        {
          "internalType": "address",
          "name": "driverAddress",
          "type": "address"
        },
        {
          "internalType": "enum Main.RideStatus",
          "name": "rideState",
          "type": "uint8"
        },
        {
          "components": [
            {
              "internalType": "int256",
              "name": "latitude",
              "type": "int256"
            },
            {
              "internalType": "int256",
              "name": "longitude",
              "type": "int256"
            }
          ],
          "internalType": "struct Main.coordinates",
          "name": "pickupLocation",
          "type": "tuple"
        },
        {
          "components": [
            {
              "internalType": "int256",
              "name": "latitude",
              "type": "int256"
            },
            {
              "internalType": "int256",
              "name": "longitude",
              "type": "int256"
            }
          ],
          "internalType": "struct Main.coordinates",
          "name": "dropoffLocation",
          "type": "tuple"
        },
        {
          "internalType": "uint256",
          "name": "bookingTime",
          "type": "uint256"
        },
        {
          "internalType": "uint256",
          "name": "rideStartTime",
          "type": "uint256"
        },
        {
          "internalType": "uint256",
          "name": "rideEndTime",
          "type": "uint256"
        },
        {
          "internalType": "uint256",
          "name": "rideCost",
          "type": "uint256"
        }
      ],
      "stateMutability": "view",
      "type": "function"
    },
    {
      "inputs": [],
      "name": "rideCount",
      "outputs": [
        {
          "internalType": "int256",
          "name": "",
          "type": "int256"
        }
      ],
      "stateMutability": "view",
      "type": "function"
    },
    {
      "inputs": [
        {
          "internalType": "int256",
          "name": "pickupLat",
          "type": "int256"
        },
        {
          "internalType": "int256",
          "name": "pickupLong",
          "type": "int256"
        },
        {
          "internalType": "int256",
          "name": "dropoffLat",
          "type": "int256"
        },
        {
          "internalType": "int256",
          "name": "dropoffLong",
          "type": "int256"
        }
      ],
      "name": "initRideBlock",
      "outputs": [],
      "stateMutability": "nonpayable",
      "type": "function"
    },
    {
      "inputs": [
        {
          "internalType": "address payable",
          "name": "_driverAddress",
          "type": "address"
        },
        {
          "internalType": "int256",
          "name": "rideNo",
          "type": "int256"
        }
      ],
      "name": "pairRiderDriver",
      "outputs": [],
      "stateMutability": "nonpayable",
      "type": "function"
    },
    {
      "inputs": [
        {
          "internalType": "int256",
          "name": "rideNo",
          "type": "int256"
        }
      ],
      "name": "startRide",
      "outputs": [],
      "stateMutability": "nonpayable",
      "type": "function"
    },
    {
      "inputs": [
        {
          "internalType": "int256",
          "name": "rideNo",
          "type": "int256"
        },
        {
          "internalType": "address payable",
          "name": "transferAddress",
          "type": "address"
        }
      ],
      "name": "endRide",
      "outputs": [],
      "stateMutability": "payable",
      "type": "function"
    }
  ],
  "bytecode": "0x60806040526000805534801561001457600080fd5b50610c0c806100246000396000f3fe6080604052600436106100555760003560e01c80631b74101d1461005a57806344b9b367146100765780635689123a1461009f57806390785e59146100c8578063b47c1883146100f1578063fe30718f1461011c575b600080fd5b610074600480360381019061006f9190610848565b610162565b005b34801561008257600080fd5b5061009d60048036038101906100989190610888565b610271565b005b3480156100ab57600080fd5b506100c660048036038101906100c191906108b5565b610390565b005b3480156100d457600080fd5b506100ef60048036038101906100ea91906108f5565b6104ac565b005b3480156100fd57600080fd5b506101066106cc565b604051610113919061096b565b60405180910390f35b34801561012857600080fd5b50610143600480360381019061013e9190610888565b6106d2565b6040516101599a99989796959493929190610a75565b60405180910390f35b60016003811115610176576101756109a7565b5b6001600084815260200190815260200160002060020160149054906101000a900460ff1660038111156101ac576101ab6109a7565b5b146101b657600080fd5b60026001600084815260200190815260200160002060020160146101000a81548160ff021916908360038111156101f0576101ef6109a7565b5b02179055504260016000848152602001908152602001600020600901819055508073ffffffffffffffffffffffffffffffffffffffff166108fc60016000858152602001908152602001600020600a01549081150290604051600060405180830381858888f1935050505015801561026c573d6000803e3d6000fd5b505050565b600073ffffffffffffffffffffffffffffffffffffffff166001600083815260200190815260200160002060020160009054906101000a900473ffffffffffffffffffffffffffffffffffffffff1673ffffffffffffffffffffffffffffffffffffffff16036102e057600080fd5b600060038111156102f4576102f36109a7565b5b6001600083815260200190815260200160002060020160149054906101000a900460ff16600381111561032a576103296109a7565b5b1461033457600080fd5b600180600083815260200190815260200160002060020160146101000a81548160ff0219169083600381111561036d5761036c6109a7565b5b021790555042600160008381526020019081526020016000206008018190555050565b600073ffffffffffffffffffffffffffffffffffffffff166001600083815260200190815260200160002060020160009054906101000a900473ffffffffffffffffffffffffffffffffffffffff1673ffffffffffffffffffffffffffffffffffffffff16146103ff57600080fd5b60006003811115610413576104126109a7565b5b6001600083815260200190815260200160002060020160149054906101000a900460ff166003811115610449576104486109a7565b5b1461045357600080fd5b816001600083815260200190815260200160002060020160006101000a81548173ffffffffffffffffffffffffffffffffffffffff021916908373ffffffffffffffffffffffffffffffffffffffff1602179055505050565b60405180610140016040528060005481526020013373ffffffffffffffffffffffffffffffffffffffff168152602001600073ffffffffffffffffffffffffffffffffffffffff1681526020016000600381111561050d5761050c6109a7565b5b8152602001604051806040016040528087815260200186815250815260200160405180604001604052808581526020018481525081526020014281526020016000815260200160008152602001670de0b6b3a764000081525060016000805481526020019081526020016000206000820151816000015560208201518160010160006101000a81548173ffffffffffffffffffffffffffffffffffffffff021916908373ffffffffffffffffffffffffffffffffffffffff16021790555060408201518160020160006101000a81548173ffffffffffffffffffffffffffffffffffffffff021916908373ffffffffffffffffffffffffffffffffffffffff16021790555060608201518160020160146101000a81548160ff0219169083600381111561063d5761063c6109a7565b5b02179055506080820151816003016000820151816000015560208201518160010155505060a0820151816005016000820151816000015560208201518160010155505060c0820151816007015560e08201518160080155610100820151816009015561012082015181600a015590505060016000808282546106bf9190610b42565b9250508190555050505050565b60005481565b60016020528060005260406000206000915090508060000154908060010160009054906101000a900473ffffffffffffffffffffffffffffffffffffffff16908060020160009054906101000a900473ffffffffffffffffffffffffffffffffffffffff16908060020160149054906101000a900460ff169080600301604051806040016040529081600082015481526020016001820154815250509080600501604051806040016040529081600082015481526020016001820154815250509080600701549080600801549080600901549080600a015490508a565b600080fd5b6000819050919050565b6107c7816107b4565b81146107d257600080fd5b50565b6000813590506107e4816107be565b92915050565b600073ffffffffffffffffffffffffffffffffffffffff82169050919050565b6000610815826107ea565b9050919050565b6108258161080a565b811461083057600080fd5b50565b6000813590506108428161081c565b92915050565b6000806040838503121561085f5761085e6107af565b5b600061086d858286016107d5565b925050602061087e85828601610833565b9150509250929050565b60006020828403121561089e5761089d6107af565b5b60006108ac848285016107d5565b91505092915050565b600080604083850312156108cc576108cb6107af565b5b60006108da85828601610833565b92505060206108eb858286016107d5565b9150509250929050565b6000806000806080858703121561090f5761090e6107af565b5b600061091d878288016107d5565b945050602061092e878288016107d5565b935050604061093f878288016107d5565b9250506060610950878288016107d5565b91505092959194509250565b610965816107b4565b82525050565b6000602082019050610980600083018461095c565b92915050565b6000610991826107ea565b9050919050565b6109a181610986565b82525050565b7f4e487b7100000000000000000000000000000000000000000000000000000000600052602160045260246000fd5b600481106109e7576109e66109a7565b5b50565b60008190506109f8826109d6565b919050565b6000610a08826109ea565b9050919050565b610a18816109fd565b82525050565b610a27816107b4565b82525050565b604082016000820151610a436000850182610a1e565b506020820151610a566020850182610a1e565b50505050565b6000819050919050565b610a6f81610a5c565b82525050565b600061018082019050610a8b600083018d61095c565b610a98602083018c610998565b610aa5604083018b610998565b610ab2606083018a610a0f565b610abf6080830189610a2d565b610acc60c0830188610a2d565b610ada610100830187610a66565b610ae8610120830186610a66565b610af6610140830185610a66565b610b04610160830184610a66565b9b9a5050505050505050505050565b7f4e487b7100000000000000000000000000000000000000000000000000000000600052601160045260246000fd5b6000610b4d826107b4565b9150610b58836107b4565b9250817f7fffffffffffffffffffffffffffffffffffffffffffffffffffffffffffffff03831360008312151615610b9357610b92610b13565b5b817f8000000000000000000000000000000000000000000000000000000000000000038312600083121615610bcb57610bca610b13565b5b82820190509291505056fea264697066735822122054488a1d1e6ce4d4d7076c14910e736eacad3e84eb8fd1f614997d2493342d9864736f6c634300080d0033",
  "immutableReferences": {},
  "source": "pragma solidity ^0.8.0;\r\n\r\ncontract Main{\r\n    enum RideStatus {\r\n        Booked,\r\n        InProgress,\r\n        Completed,\r\n        Cancelled\r\n    }\r\n    // ^ enum for Ride RideStatus\r\n    // Booked - Ride is Booked but it hasn't started yet\r\n    // InProgress - Rider and Driver are travelling to the Destination\r\n    // Completed - The Ride has been completed and the payment is successful\r\n    // Cancelled - Ride was cancelled before it could begin\r\n    \r\n    int256 public rideCount = 0;\r\n    mapping (int256 => Ride) public Rides;\r\n    // int256 public constant RES = 100000;\r\n\r\n        struct coordinates{\r\n            int256 latitude;\r\n            int256 longitude;\r\n        }\r\n    \r\n    struct Ride{\r\n        int256 rideId;\r\n        address riderAddress;\r\n        address driverAddress;\r\n        RideStatus rideState;\r\n        coordinates pickupLocation;\r\n        coordinates dropoffLocation;\r\n        uint256 bookingTime;\r\n        uint256 rideStartTime;\r\n        uint256 rideEndTime;\r\n        uint256 rideCost;\r\n    }\r\n    \r\n    function initRideBlock(int256 pickupLat, int256 pickupLong, int256 dropoffLat, int256 dropoffLong) public{\r\n            Rides[rideCount] = Ride({\r\n                rideId : rideCount,\r\n                riderAddress: msg.sender,\r\n                driverAddress: 0x0000000000000000000000000000000000000000,\r\n                rideState : RideStatus.Booked,\r\n                pickupLocation: coordinates({latitude: pickupLat, longitude: pickupLong}),\r\n                dropoffLocation: coordinates({latitude: dropoffLat, longitude: dropoffLong}),\r\n                bookingTime: block.timestamp,\r\n                rideStartTime: 0,\r\n                rideEndTime: 0,\r\n                rideCost: 1 ether\r\n            });\r\n            rideCount += 1;\r\n        }\r\n    \r\n    function pairRiderDriver(address payable _driverAddress, int256 rideNo) public{\r\n        require(Rides[rideNo].driverAddress == 0x0000000000000000000000000000000000000000);\r\n        require(Rides[rideNo].rideState == RideStatus.Booked);\r\n        Rides[rideNo].driverAddress = _driverAddress;\r\n    }\r\n    \r\n    function startRide(int256 rideNo) public{\r\n        require(Rides[rideNo].driverAddress != 0x0000000000000000000000000000000000000000);\r\n        require(Rides[rideNo].rideState == RideStatus.Booked);\r\n        Rides[rideNo].rideState = RideStatus.InProgress;\r\n        Rides[rideNo].rideStartTime = block.timestamp;\r\n    }\r\n    \r\n    function endRide(int256 rideNo, address payable transferAddress) public payable{\r\n        require(Rides[rideNo].rideState == RideStatus.InProgress);\r\n        Rides[rideNo].rideState = RideStatus.Completed;\r\n        Rides[rideNo].rideEndTime = block.timestamp;\r\n        transferAddress.transfer(Rides[rideNo].rideCost);\r\n    }\r\n}\r\n",
  "sourcePath": "A:\\Code Files\\Flutter Apps\\blockchain_ridesharing\\contracts\\contracts\\Main.sol",
  "compiler": {
    "name": "solc",
    "version": "0.8.13+commit.abaa5c0e.Emscripten.clang"
  },
  "schemaVersion": "3.4.5",
  "updatedAt": "2022-03-21T10:28:02.714Z",
  "devdoc": {
    "kind": "dev",
    "methods": {},
    "version": 1
  },
  "userdoc": {
    "kind": "user",
    "methods": {},
    "version": 1
  }
}