{
  "contractName": "Main",
  "abi": [
    {
      "inputs": [
        {
          "internalType": "int256",
          "name": "",
          "type": "int256"
        }
      ],
      "name": "Rides",
      "outputs": [
        {
          "internalType": "int256",
          "name": "rideId",
          "type": "int256"
        },
        {
          "internalType": "address",
          "name": "riderAddress",
          "type": "address"
        },
        {
          "internalType": "address",
          "name": "driverAddress",
          "type": "address"
        },
        {
          "internalType": "enum Main.RideStatus",
          "name": "rideState",
          "type": "uint8"
        },
        {
          "components": [
            {
              "internalType": "int256",
              "name": "latitude",
              "type": "int256"
            },
            {
              "internalType": "int256",
              "name": "longitude",
              "type": "int256"
            }
          ],
          "internalType": "struct Main.coordinates",
          "name": "pickupLocation",
          "type": "tuple"
        },
        {
          "components": [
            {
              "internalType": "int256",
              "name": "latitude",
              "type": "int256"
            },
            {
              "internalType": "int256",
              "name": "longitude",
              "type": "int256"
            }
          ],
          "internalType": "struct Main.coordinates",
          "name": "dropoffLocation",
          "type": "tuple"
        },
        {
          "internalType": "uint256",
          "name": "bookingTime",
          "type": "uint256"
        },
        {
          "internalType": "uint256",
          "name": "rideStartTime",
          "type": "uint256"
        },
        {
          "internalType": "uint256",
          "name": "rideEndTime",
          "type": "uint256"
        },
        {
          "internalType": "uint256",
          "name": "rideCost",
          "type": "uint256"
        }
      ],
      "stateMutability": "view",
      "type": "function",
      "constant": true
    },
    {
      "inputs": [],
      "name": "rideCount",
      "outputs": [
        {
          "internalType": "int256",
          "name": "",
          "type": "int256"
        }
      ],
      "stateMutability": "view",
      "type": "function",
      "constant": true
    },
    {
      "inputs": [],
      "name": "initRideBlock",
      "outputs": [],
      "stateMutability": "nonpayable",
      "type": "function"
    },
    {
      "inputs": [
        {
          "internalType": "address payable",
          "name": "_driverAddress",
          "type": "address"
        },
        {
          "internalType": "int256",
          "name": "rideNo",
          "type": "int256"
        }
      ],
      "name": "pairRiderDriver",
      "outputs": [],
      "stateMutability": "nonpayable",
      "type": "function"
    },
    {
      "inputs": [
        {
          "internalType": "int256",
          "name": "rideNo",
          "type": "int256"
        }
      ],
      "name": "startRide",
      "outputs": [],
      "stateMutability": "nonpayable",
      "type": "function"
    },
    {
      "inputs": [
        {
          "internalType": "int256",
          "name": "rideNo",
          "type": "int256"
        },
        {
          "internalType": "address payable",
          "name": "transferAddress",
          "type": "address"
        }
      ],
      "name": "endRide",
      "outputs": [],
      "stateMutability": "payable",
      "type": "function",
      "payable": true
    }
  ],
  "bytecode": "0x60806040526000805534801561001457600080fd5b50610b94806100246000396000f3fe6080604052600436106100555760003560e01c80631b74101d1461005a57806344b9b367146100765780635689123a1461009f57806399d7acc7146100c8578063b47c1883146100df578063fe30718f1461010a575b600080fd5b610074600480360381019061006f9190610837565b610150565b005b34801561008257600080fd5b5061009d60048036038101906100989190610877565b61025f565b005b3480156100ab57600080fd5b506100c660048036038101906100c191906108a4565b61037f565b005b3480156100d457600080fd5b506100dd61049b565b005b3480156100eb57600080fd5b506100f46106bb565b60405161010191906108f3565b60405180910390f35b34801561011657600080fd5b50610131600480360381019061012c9190610877565b6106c1565b6040516101479a999897969594939291906109fd565b60405180910390f35b600160038111156101645761016361092f565b5b6001600084815260200190815260200160002060020160149054906101000a900460ff16600381111561019a5761019961092f565b5b146101a457600080fd5b60026001600084815260200190815260200160002060020160146101000a81548160ff021916908360038111156101de576101dd61092f565b5b02179055504260016000848152602001908152602001600020600901819055508073ffffffffffffffffffffffffffffffffffffffff166108fc60016000858152602001908152602001600020600a01549081150290604051600060405180830381858888f1935050505015801561025a573d6000803e3d6000fd5b505050565b600073ffffffffffffffffffffffffffffffffffffffff166001600083815260200190815260200160002060020160009054906101000a900473ffffffffffffffffffffffffffffffffffffffff1673ffffffffffffffffffffffffffffffffffffffff1614156102cf57600080fd5b600060038111156102e3576102e261092f565b5b6001600083815260200190815260200160002060020160149054906101000a900460ff1660038111156103195761031861092f565b5b1461032357600080fd5b600180600083815260200190815260200160002060020160146101000a81548160ff0219169083600381111561035c5761035b61092f565b5b021790555042600160008381526020019081526020016000206008018190555050565b600073ffffffffffffffffffffffffffffffffffffffff166001600083815260200190815260200160002060020160009054906101000a900473ffffffffffffffffffffffffffffffffffffffff1673ffffffffffffffffffffffffffffffffffffffff16146103ee57600080fd5b600060038111156104025761040161092f565b5b6001600083815260200190815260200160002060020160149054906101000a900460ff1660038111156104385761043761092f565b5b1461044257600080fd5b816001600083815260200190815260200160002060020160006101000a81548173ffffffffffffffffffffffffffffffffffffffff021916908373ffffffffffffffffffffffffffffffffffffffff1602179055505050565b60405180610140016040528060005481526020013373ffffffffffffffffffffffffffffffffffffffff168152602001600073ffffffffffffffffffffffffffffffffffffffff168152602001600060038111156104fc576104fb61092f565b5b815260200160405180604001604052806000815260200160008152508152602001604051806040016040528060008152602001600081525081526020014281526020016000815260200160008152602001670de0b6b3a764000081525060016000805481526020019081526020016000206000820151816000015560208201518160010160006101000a81548173ffffffffffffffffffffffffffffffffffffffff021916908373ffffffffffffffffffffffffffffffffffffffff16021790555060408201518160020160006101000a81548173ffffffffffffffffffffffffffffffffffffffff021916908373ffffffffffffffffffffffffffffffffffffffff16021790555060608201518160020160146101000a81548160ff021916908360038111156106305761062f61092f565b5b02179055506080820151816003016000820151816000015560208201518160010155505060a0820151816005016000820151816000015560208201518160010155505060c0820151816007015560e08201518160080155610100820151816009015561012082015181600a015590505060016000808282546106b29190610aca565b92505081905550565b60005481565b60016020528060005260406000206000915090508060000154908060010160009054906101000a900473ffffffffffffffffffffffffffffffffffffffff16908060020160009054906101000a900473ffffffffffffffffffffffffffffffffffffffff16908060020160149054906101000a900460ff169080600301604051806040016040529081600082015481526020016001820154815250509080600501604051806040016040529081600082015481526020016001820154815250509080600701549080600801549080600901549080600a015490508a565b600080fd5b6000819050919050565b6107b6816107a3565b81146107c157600080fd5b50565b6000813590506107d3816107ad565b92915050565b600073ffffffffffffffffffffffffffffffffffffffff82169050919050565b6000610804826107d9565b9050919050565b610814816107f9565b811461081f57600080fd5b50565b6000813590506108318161080b565b92915050565b6000806040838503121561084e5761084d61079e565b5b600061085c858286016107c4565b925050602061086d85828601610822565b9150509250929050565b60006020828403121561088d5761088c61079e565b5b600061089b848285016107c4565b91505092915050565b600080604083850312156108bb576108ba61079e565b5b60006108c985828601610822565b92505060206108da858286016107c4565b9150509250929050565b6108ed816107a3565b82525050565b600060208201905061090860008301846108e4565b92915050565b6000610919826107d9565b9050919050565b6109298161090e565b82525050565b7f4e487b7100000000000000000000000000000000000000000000000000000000600052602160045260246000fd5b6004811061096f5761096e61092f565b5b50565b60008190506109808261095e565b919050565b600061099082610972565b9050919050565b6109a081610985565b82525050565b6109af816107a3565b82525050565b6040820160008201516109cb60008501826109a6565b5060208201516109de60208501826109a6565b50505050565b6000819050919050565b6109f7816109e4565b82525050565b600061018082019050610a13600083018d6108e4565b610a20602083018c610920565b610a2d604083018b610920565b610a3a606083018a610997565b610a4760808301896109b5565b610a5460c08301886109b5565b610a626101008301876109ee565b610a706101208301866109ee565b610a7e6101408301856109ee565b610a8c6101608301846109ee565b9b9a5050505050505050505050565b7f4e487b7100000000000000000000000000000000000000000000000000000000600052601160045260246000fd5b6000610ad5826107a3565b9150610ae0836107a3565b9250817f7fffffffffffffffffffffffffffffffffffffffffffffffffffffffffffffff03831360008312151615610b1b57610b1a610a9b565b5b817f8000000000000000000000000000000000000000000000000000000000000000038312600083121615610b5357610b52610a9b565b5b82820190509291505056fea2646970667358221220ad356fec3b602cf33391b260fd5b7764a95d1b0f73add0e33a65e72bcd959a8564736f6c634300080c0033",
  "immutableReferences": {},
  "source": "pragma solidity ^0.8.0;\r\n\r\ncontract Main{\r\n    enum RideStatus {\r\n        Booked,\r\n        InProgress,\r\n        Completed,\r\n        Cancelled\r\n    }\r\n    // ^ enum for Ride RideStatus\r\n    // Booked - Ride is Booked but it hasn't started yet\r\n    // InProgress - Rider and Driver are travelling to the Destination\r\n    // Completed - The Ride has been completed and the payment is successful\r\n    // Cancelled - Ride was cancelled before it could begin\r\n    \r\n    int256 public rideCount = 0;\r\n    mapping (int256 => Ride) public Rides;\r\n    \r\n    struct coordinates{\r\n        int256 latitude;\r\n        int256 longitude;\r\n    }\r\n    \r\n    struct Ride{\r\n        int256 rideId;\r\n        address riderAddress;\r\n        address driverAddress;\r\n        RideStatus rideState;\r\n        coordinates pickupLocation;\r\n        coordinates dropoffLocation;\r\n        uint256 bookingTime;\r\n        uint256 rideStartTime;\r\n        uint256 rideEndTime;\r\n        uint256 rideCost;\r\n    }\r\n    \r\n    function initRideBlock() public{\r\n        Rides[rideCount] = Ride({\r\n            rideId : rideCount,\r\n            riderAddress: msg.sender,\r\n            driverAddress: 0x0000000000000000000000000000000000000000,\r\n            rideState : RideStatus.Booked, \r\n            pickupLocation: coordinates({latitude: 0, longitude: 0}),\r\n            dropoffLocation: coordinates({latitude: 0, longitude: 0}),\r\n            bookingTime: block.timestamp,\r\n            rideStartTime: 0,\r\n            rideEndTime: 0,\r\n            rideCost: 1 ether\r\n        });\r\n        rideCount += 1;\r\n    }\r\n    \r\n    function pairRiderDriver(address payable _driverAddress, int256 rideNo) public{\r\n        require(Rides[rideNo].driverAddress == 0x0000000000000000000000000000000000000000);\r\n        require(Rides[rideNo].rideState == RideStatus.Booked);\r\n        Rides[rideNo].driverAddress = _driverAddress;\r\n    }\r\n    \r\n    function startRide(int256 rideNo) public{\r\n        require(Rides[rideNo].driverAddress != 0x0000000000000000000000000000000000000000);\r\n        require(Rides[rideNo].rideState == RideStatus.Booked);\r\n        Rides[rideNo].rideState = RideStatus.InProgress;\r\n        Rides[rideNo].rideStartTime = block.timestamp;\r\n    }\r\n    \r\n    function endRide(int256 rideNo, address payable transferAddress) public payable{\r\n        require(Rides[rideNo].rideState == RideStatus.InProgress);\r\n        Rides[rideNo].rideState = RideStatus.Completed;\r\n        Rides[rideNo].rideEndTime = block.timestamp;\r\n        transferAddress.transfer(Rides[rideNo].rideCost);\r\n    }\r\n}\r\n",
  "sourcePath": "A:\\Code Files\\Flutter Apps\\blockchain_ridesharing\\contracts\\contracts\\Main.sol",
  "compiler": {
    "name": "solc",
    "version": "0.8.12+commit.f00d7308.Emscripten.clang"
  },
  "schemaVersion": "3.4.5",
  "updatedAt": "2022-03-16T14:01:25.003Z",
  "networkType": "ethereum",
  "devdoc": {
    "kind": "dev",
    "methods": {},
    "version": 1
  },
  "userdoc": {
    "kind": "user",
    "methods": {},
    "version": 1
  }
}