{
  "contractName": "Main",
  "abi": [
    {
      "constant": false,
      "inputs": [
        {
          "internalType": "address payable",
          "name": "driverAdd",
          "type": "address"
        },
        {
          "internalType": "address",
          "name": "userAdd",
          "type": "address"
        }
      ],
      "name": "finalizeDriver",
      "outputs": [],
      "payable": false,
      "stateMutability": "nonpayable",
      "type": "function"
    },
    {
      "constant": false,
      "inputs": [
        {
          "internalType": "address payable",
          "name": "userAdd",
          "type": "address"
        },
        {
          "internalType": "address payable",
          "name": "driverAdd",
          "type": "address"
        }
      ],
      "name": "addDriver",
      "outputs": [],
      "payable": false,
      "stateMutability": "nonpayable",
      "type": "function"
    },
    {
      "constant": true,
      "inputs": [
        {
          "internalType": "address",
          "name": "userAdd",
          "type": "address"
        }
      ],
      "name": "getEliDrivers",
      "outputs": [
        {
          "internalType": "address[]",
          "name": "",
          "type": "address[]"
        }
      ],
      "payable": false,
      "stateMutability": "view",
      "type": "function"
    }
  ],
  "bytecode": "0x608060405234801561001057600080fd5b5061062e806100206000396000f3fe608060405234801561001057600080fd5b50600436106100415760003560e01c806372857ecd146100465780638977707f146100aa578063f85d255c14610143575b600080fd5b6100a86004803603604081101561005c57600080fd5b81019080803573ffffffffffffffffffffffffffffffffffffffff169060200190929190803573ffffffffffffffffffffffffffffffffffffffff1690602001909291905050506101a7565b005b6100ec600480360360208110156100c057600080fd5b81019080803573ffffffffffffffffffffffffffffffffffffffff169060200190929190505050610234565b6040518080602001828103825283818151815260200191508051906020019060200280838360005b8381101561012f578082015181840152602081019050610114565b505050509050019250505060405180910390f35b6101a56004803603604081101561015957600080fd5b81019080803573ffffffffffffffffffffffffffffffffffffffff169060200190929190803573ffffffffffffffffffffffffffffffffffffffff169060200190929190505050610303565b005b816000808373ffffffffffffffffffffffffffffffffffffffff1673ffffffffffffffffffffffffffffffffffffffff16815260200190815260200160002060020160006101000a81548173ffffffffffffffffffffffffffffffffffffffff021916908373ffffffffffffffffffffffffffffffffffffffff16021790555061023081610469565b5050565b60606000808373ffffffffffffffffffffffffffffffffffffffff1673ffffffffffffffffffffffffffffffffffffffff1681526020019081526020016000206000018054806020026020016040519081016040528092919081815260200182805480156102f757602002820191906000526020600020905b8160009054906101000a900473ffffffffffffffffffffffffffffffffffffffff1673ffffffffffffffffffffffffffffffffffffffff16815260200190600101908083116102ad575b50505050509050919050565b6000808373ffffffffffffffffffffffffffffffffffffffff1673ffffffffffffffffffffffffffffffffffffffff1681526020019081526020016000206000018190806001815401808255809150509060018203906000526020600020016000909192909190916101000a81548173ffffffffffffffffffffffffffffffffffffffff021916908373ffffffffffffffffffffffffffffffffffffffff1602179055505060008060008473ffffffffffffffffffffffffffffffffffffffff1673ffffffffffffffffffffffffffffffffffffffff16815260200190815260200160002060020160146101000a81548160ff02191690831515021790555060008060008473ffffffffffffffffffffffffffffffffffffffff1673ffffffffffffffffffffffffffffffffffffffff16815260200190815260200160002060020160156101000a81548160ff021916908315150217905550610465826104b9565b5050565b6000808273ffffffffffffffffffffffffffffffffffffffff1673ffffffffffffffffffffffffffffffffffffffff16815260200190815260200160002060000160006104b691906105b3565b50565b60008090505b600180549050811015610548578173ffffffffffffffffffffffffffffffffffffffff16600182815481106104f057fe5b9060005260206000200160009054906101000a900473ffffffffffffffffffffffffffffffffffffffff1673ffffffffffffffffffffffffffffffffffffffff16141561053d57506105b0565b8060010190506104bf565b5060018190806001815401808255809150509060018203906000526020600020016000909192909190916101000a81548173ffffffffffffffffffffffffffffffffffffffff021916908373ffffffffffffffffffffffffffffffffffffffff160217905550505b50565b50805460008255906000526020600020908101906105d191906105d4565b50565b6105f691905b808211156105f25760008160009055506001016105da565b5090565b9056fea265627a7a723158205c657e2ca1904e20469343a0ceb3bdecc8339f4dd2b2a8eaea9f6a5e182b247964736f6c63430005100032",
  "source": "pragma solidity ^0.5.16;\n\ncontract Main {\n    struct eligibleDrivers {\n        address[] drivers;\n        uint256 amount;\n        address payable finalDriver;\n        bool userConfirmation;\n        bool driverConfirmation;\n    }\n\n    mapping (address => eligibleDrivers) perUserTable;\n    address payable[] activeUsers;\n\n    // function to ONLY add the user if not already added\n    function addUser(address payable userAdd) private {\n        for (uint256 i = 0; i < activeUsers.length; ++i) {\n            if (activeUsers[i] == userAdd) {\n                return;\n            }\n        }\n        activeUsers.push(userAdd);\n    }\n\n    function clearDrivers(address userAdd) private {\n        delete perUserTable[userAdd].drivers;\n    }\n\n    function finalizeDriver (address payable driverAdd, address userAdd) public {\n        perUserTable[userAdd].finalDriver = driverAdd;\n        clearDrivers(userAdd);\n    }\n\n    function addDriver(\n        address payable userAdd,\n        address payable driverAdd\n    ) public {\n        perUserTable[userAdd].drivers.push(driverAdd);\n        perUserTable[userAdd].userConfirmation = false;\n        perUserTable[userAdd].driverConfirmation = false;\n        addUser(userAdd);\n    }\n\n    function getEliDrivers(address userAdd) public view returns (address[] memory) {\n        return perUserTable[userAdd].drivers;\n    }\n}\n",
  "sourcePath": "/home/nimai/dev/decen_ridesharing/contracts/contracts/Main.sol",
  "compiler": {
    "name": "solc",
    "version": "0.5.16+commit.9c3226ce.Emscripten.clang"
  },
  "schemaVersion": "3.4.3",
  "updatedAt": "2021-09-23T14:13:55.655Z",
  "devdoc": {
    "methods": {}
  },
  "userdoc": {
    "methods": {}
  }
}